:100000000C9463000C948B000C948B000C948B006C
:100010000C948B000C948B000C948B000C94C000FF
:100020000C948B000C948B000C948B000C948B0024
:100030000C948B000C948B000C948B000C948B0014
:100040000C94F3010C948B000C94FA030C944C0464
:100050000C948B000C948B000C948B000C948B00F4
:100060000C948B000C948B000000000024002700EF
:100070002A0000000000250028002B0000000000DE
:1000800023002600290004040404040404040202DA
:100090000202020203030303030301020408102007
:1000A0004080010204081020010204081020000012
:1000B0000007000201000003040600000000000029
:1000C00000008D00BB0511241FBECFEFD8E0DEBFBE
:1000D000CDBF11E0A0E0B1E0E2E1FDE002C005909B
:1000E0000D92AA31B107D9F712E0AAE1B1E001C03F
:1000F0001D92AC39B107E1F710E0C6ECD0E004C0C6
:100100002297FE010E948306C23CD107C9F70E94D4
:1001100067030C9487060C9400000895EF92FF92F9
:100120000F931F938AE792E00E940E05892BD1F36B
:100130008AE792E00E9442057C018AE792E060E053
:1001400071E00E94F6038AE792E06E2D0E94C203DE
:1001500000E010E08AE191E0B801A70128E030E07A
:100160000E94A4011F910F91FF90EF9008958AE7DC
:1001700092E040E855E260E070E00E948704089554
:100180001F920F920FB60F9211242F933F934F930C
:100190005F936F937F938F939F93AF93BF93EF93EF
:1001A000FF9380911B010E941303482F80911E0131
:1001B00090911F01019690931F0180931E018091E1
:1001C000E801843618F085E080931C0180911C01C1
:1001D0008330D1F0843020F4823009F059C006C059
:1001E000843071F1853009F053C04CC0442309F0CC
:1001F0004FC080911E0190911F018436910508F433
:1002000043C01092E8011EC0413009F041C0809106
:10021000E801E82FF0E020911E0130911F01EE0F60
:10022000FF1FE55EFE4F368325838F5F8093E801D5
:1002300010921F0110921E0184E080931C0128C0BF
:100240004423B9F48091E801E82FF0E020911E01E9
:1002500030911F01EE0FFF1FE55EFE4F36832583B1
:100260008F5F8093E80110921F0110921E0183E0BE
:10027000E4CF80911E0190911F018536910540F0D9
:1002800085E0DBCF442321F410921F0110921E0160
:1002900080911D01882329F0442311F42D9A01C077
:1002A0002D98FF91EF91BF91AF919F918F917F9189
:1002B0006F915F914F913F912F910F900FBE0F90D3
:1002C0001F901895EF92FF920F931F937B0110924E
:1002D000700083E061E00E94800283E060E00E94A1
:1002E000BF020027F7FC0095102F60E47FE180E05B
:1002F00090E0A80197010E945206822F91E090930E
:10030000B00099E09093B1002093B30063E00E94A5
:100310001106E4EBF0E08083E0811F910F91FF90E4
:10032000EF900895CB01E0EBF0E020812F7D20835A
:100330000E943B020895CB01E0EBF0E020812062B7
:1003400020830E943B020895AF92BF92CF92DF922A
:10035000EF92FF920F931F93CF93DF93EC017A01FB
:100360008B01590168E270E00E946201CE0160E6F3
:1003700079E00E949B01CE0168E572E00E94920143
:1003800080E290E08A199B0904C0EE0CFF1C001F5C
:10039000111F8A95D2F7CC24DD2417C017FF04C0A3
:1003A000CE0160EB74E003C0CE0168E572E00E940C
:1003B0009B01CE0168E572E00E949201EE0CFF1CE9
:1003C000001F111F0894C11CD11CCA14DB0434F394
:1003D000DF91CF911F910F91FF90EF90DF90CF9021
:1003E000BF90AF9008951F920F920FB60F921124F5
:1003F0002F933F938F939F93AF93BF938091ED0182
:100400009091EE01A091EF01B091F0013091F101D6
:100410000196A11DB11D232F2D5F2D3720F02D57E3
:100420000196A11DB11D2093F1018093ED019093E0
:10043000EE01A093EF01B093F0018091E90190915A
:10044000EA01A091EB01B091EC010196A11DB11D53
:100450008093E9019093EA01A093EB01B093EC0142
:10046000BF91AF919F918F913F912F910F900FBEB0
:100470000F901F901895019739F0880F991F880FDA
:10048000991F02970197F1F70895789484B58260D7
:1004900084BD84B5816084BD85B5826085BD85B528
:1004A000816085BDEEE6F0E0808181608083E1E8D7
:1004B000F0E010828081826080838081816080830F
:1004C000E0E8F0E0808181608083E1EBF0E0808112
:1004D00084608083E0EBF0E0808181608083EAE7E4
:1004E000F0E080818460808380818260808380816D
:1004F000816080838081806880831092C10008952C
:10050000CF93DF93482F50E0CA0186569F4FFC01DE
:1005100034914A575F4FFA018491882369F190E042
:10052000880F991FFC01E859FF4FA591B491FC0178
:10053000EE58FF4FC591D491662351F42FB7F8942C
:100540008C91932F909589238C93888189230BC05C
:10055000623061F42FB7F8948C91932F9095892392
:100560008C938881832B88832FBF06C09FB7F89414
:100570008C91832B8C939FBFDF91CF910895482F4F
:1005800050E0CA0182559F4FFC012491CA01865652
:100590009F4FFC0194914A575F4FFA0134913323E6
:1005A00009F440C0222351F1233071F0243028F4A3
:1005B0002130A1F0223011F514C02630B1F02730DF
:1005C000C1F02430D9F404C0809180008F7703C03B
:1005D000809180008F7D8093800010C084B58F77DC
:1005E00002C084B58F7D84BD09C08091B0008F7733
:1005F00003C08091B0008F7D8093B000E32FF0E0C6
:10060000EE0FFF1FEE58FF4FA591B4912FB7F8944E
:10061000662321F48C919095892302C08C91892BBB
:100620008C932FBF0895682F70E0CB0182559F4FA8
:10063000FC012491CB0186569F4FFC0144916A57DF
:100640007F4FFB019491992319F420E030E03CC0E6
:10065000222351F1233071F0243028F42130A1F00D
:10066000223011F514C02630B1F02730C1F024300B
:10067000D9F404C0809180008F7703C080918000FE
:100680008F7D8093800010C084B58F7702C084B5C1
:100690008F7D84BD09C08091B0008F7703C08091A9
:1006A000B0008F7D8093B000892F90E0880F991F54
:1006B00084589F4FFC01A591B4918C9120E030E0CB
:1006C000842311F021E030E0C90108950895CF930B
:1006D000DF930E9445020E9466030E94B700C5E3B3
:1006E000D4E00E948E002097E1F30E943504F9CFF8
:1006F000CF92DF92EF92FF920F931F93CF93DF93EE
:100700007C016B018A01C0E0D0E00FC0D6016D9181
:100710006D01D701ED91FC910190F081E02DC701B1
:100720000995C80FD91F015010400115110571F727
:10073000CE01DF91CF911F910F91FF90EF90DF904D
:10074000CF900895EF92FF920F931F938C01DC01DD
:10075000ED91FC910190F081E02D6DE009957C0117
:10076000D801ED91FC910190F081E02DC8016AE083
:1007700009959C012E0D3F1DC9011F910F91FF90FE
:10078000EF900895EF92FF920F931F937C01DC018D
:10079000ED91FC910190F081E02D09958C01C7014C
:1007A0000E94A203080F191FC8011F910F91FF900B
:1007B000EF900895CF93DF93EC016115710519F463
:1007C00020E030E00FC0DB010D900020E9F7119729
:1007D000A61BB70BE881F9810280F381E02DAD0102
:1007E00009959C01C901DF91CF9108950E94DA0318
:1007F000089508951F920F920FB60F9211242F9310
:100800003F934F938F939F93EF93FF938091C000FB
:1008100082FD1DC04091C60020913202309133020A
:100820002F5F3F4F2F7330708091340290913502CB
:100830002817390771F0E0913202F0913302EE503F
:10084000FE4F4083309333022093320202C08091E6
:10085000C600FF91EF919F918F914F913F912F9102
:100860000F900FBE0F901F901895E0918602F091A7
:100870008702E05CFF4F8191919120813181805C02
:100880009F4F821B930B60E470E00E941D06892B32
:1008900011F00E94F90308951F920F920FB60F9264
:1008A00011242F933F938F939F93EF93FF93209166
:1008B0007602309177028091780290917902281720
:1008C000390731F48091C1008F7D8093C10014C03D
:1008D000E0917802F0917902EA5CFD4F20818091ED
:1008E00078029091790201968F73907090937902BB
:1008F000809378022093C600FF91EF919F918F9192
:100900003F912F910F900FBE0F901F901895AF92AF
:10091000BF92DF92EF92FF920F931F93CF93DF93DB
:10092000EC017A018B01DD24403081EE580780E034
:10093000680780E0780711F0DD24D39491E0A92EB8
:10094000B12CEC89FD89DD2069F0C50108A002C049
:10095000880F991F0A94E2F7808360E079E08DE3C5
:1009600090E005C0108260E874E88EE190E0A80194
:1009700097010E943006215030404040504056952B
:1009800047953795279580E12030380720F0DD2006
:1009900011F0DD24D6CFE889F9893083EA89FB8913
:1009A000208319A2EE89FF89408121E030E0C9014E
:1009B0000C8C02C0880F991F0A94E2F7482B4083E1
:1009C000EE89FF894081C9010D8C02C0880F991FF3
:1009D0000A94E2F7482B4083EE89FF894081C901E0
:1009E0000E8C02C0880F991F0A94E2F7482B4083AF
:1009F000EE89FF8980810F8C02C0220F331F0A9479
:100A0000E2F7209528232083DF91CF911F910F914A
:100A1000FF90EF90DF90BF90AF900895DC011C969F
:100A2000ED91FC911D97E05CFF4F819191912081A8
:100A30003181805C9F4F821B930B60E470E00E94C9
:100A40001D060895DC011C96ED91FC911D97E05C5C
:100A5000FF4F20813181E054F040DF01AE5BBF4F9A
:100A60008D919C9111972817390719F42FEF3FEFBB
:100A700007C08D919C91E80FF91F8081282F30E0ED
:100A8000C9010895DC011C96ED91FC911D97E05C75
:100A9000FF4F20813181E054F040DF01AE5BBF4F5A
:100AA0008D919C9111972817390719F42FEF3FEF7B
:100AB00010C08D919C911197E80FF91F20818D91A5
:100AC0009C91119701968F73907011969C938E93C1
:100AD00030E0C9010895DC0191968C9191978823AB
:100AE00039F05496ED91FC915597808186FFF9CFAE
:100AF00091961C920895CF93DF93EC01EE85FF85CC
:100B0000E05CFF4F20813181E054F0402F5F3F4F88
:100B10002F733070DF01AE5BBF4F8D919C911197A9
:100B200028173907D1F3E05CFF4F80819181E054B1
:100B3000F040E80FF91F6083EE85FF85E05CFF4F12
:100B400031832083EE89FF89208181E090E00F8C42
:100B500002C0880F991F0A94E2F7282B208381E0B6
:100B600089A3EC89FD8980818064808381E090E0A5
:100B7000DF91CF91089510927D0210927C0288EE51
:100B800093E0A0E0B0E080937E0290937F02A09378
:100B90008002B09381028DE091E090937B0280937C
:100BA0007A0282EF91E0909387028093860286E337
:100BB00092E0909389028093880285EC90E0909374
:100BC0008B0280938A0284EC90E090938D02809354
:100BD0008C0280EC90E090938F0280938E0281ECE7
:100BE00090E0909391028093900282EC90E0909339
:100BF00093028093920286EC90E09093950280930A
:100C0000940284E08093960283E08093970287E0C9
:100C10008093980285E08093990281E080939A0204
:100C20000895991B79E004C0991F961708F0961B48
:100C3000881F7A95C9F78095089597FB092E072696
:100C40000AD077FD04D049D006D000201AF4709560
:100C500061957F4F0895F6F7909581959F4F089580
:100C6000A1E21A2EAA1BBB1BFD010DC0AA1FBB1FB0
:100C7000EE1FFF1FA217B307E407F50720F0A21B22
:100C8000B30BE40BF50B661F771F881F991F1A948F
:100C900069F760957095809590959B01AC01BD01B9
:100CA000CF01089597FB092E05260ED057FD04D0DD
:100CB000D7DF0AD0001C38F4509540953095219527
:100CC0003F4F4F4F5F4F0895F6F790958095709581
:100CD00061957F4F8F4F9F4F0895AA1BBB1B51E11A
:100CE00007C0AA1FBB1FA617B70710F0A61BB70B9C
:100CF000881F991F5A95A9F780959095BC01CD0141
:100D00000895EE0FFF1F0590F491E02D0994F894DB
:020D1000FFCF13
:100D120053656E64696E672000000000007B0578F1
:0A0D2200030E05420522056B0500D3
:00000001FF
