:100000000C9463000C948B000C948B000C948B006C
:100010000C948B000C948B000C948B000C945A0A5B
:100020000C948B000C948B000C948B000C948B0024
:100030000C948B000C948B000C948B000C948B0014
:100040000C94170B0C948B000C94680D0C94BA0D47
:100050000C948B000C948B000C948B000C948B00F4
:100060000C948B000C948B000000000024002700EF
:100070002A0000000000250028002B0000000000DE
:1000800023002600290004040404040404040202DA
:100090000202020203030303030301020408102007
:1000A0004080010204081020010204081020000012
:1000B0000007000201000003040600000000000029
:1000C00000008B01290F11241FBECFEFD8E0DEBF47
:1000D000CDBF11E0A0E0B1E0ECE0F4E202C0059099
:1000E0000D92A231B107D9F712E0A2E1B1E001C04F
:1000F0001D92A23AB107E1F710E0C6ECD0E004C0CF
:100100002297FE010E940012C23CD107C9F70E944B
:100110002D0C0C9404120C940000EF92FF920F939C
:10012000DF93CF93CDB7DEB760970FB6F894DEBFFD
:100130000FBECDBFA82F002309F461C07E01089433
:10014000E11CF11C88E0F70111928A95E9F72983F7
:100150003A834B835C836D837E83AF83988780E291
:10016000801BE82FFF27E7FDF0954D815E816F81B1
:100170007885181684F01D861E861F86188A8827A3
:1001800099278E1B9F0B04C07695679557954795C9
:100190008A95D2F728C0202F332727FD3095DB0121
:1001A000CA01022E04C0B695A795979587950A9423
:1001B000D2F78D879E87AF87B88B04C0440F551F39
:1001C000661F771FEA95D2F789819A81AB81BC813E
:1001D00004C0B695A795979587952A95D2F7482B91
:1001E000592B6A2B7B2B49875A876B877C872985FC
:1001F0003A854B855C856D857E85AF8598898A2F8C
:1002000060960FB6F894DEBF0FBECDBFCF91DF91E1
:100210000F91FF90EF900895EF92FF920F93DF936D
:10022000CF93CDB7DEB760970FB6F894DEBF0FBEA1
:10023000CDBFA82F002309F461C07E010894E11C02
:10024000F11C88E0F70111928A95E9F729833A8336
:100250004B835C836D837E83AF83988780E2801BB2
:10026000E82FFF27E7FDF09549815A816B817C815A
:10027000181684F019861A861B861C8688279927EB
:100280008E1B9F0B04C0440F551F661F771F8A9556
:10029000D2F728C0202F332727FD3095DB01CA0174
:1002A000022E04C0880F991FAA1FBB1F0A94D2F701
:1002B00089879A87AB87BC8704C0769567955795E1
:1002C0004795EA95D2F78D819E81AF81B88504C0AC
:1002D000880F991FAA1FBB1F2A95D2F7482B592BAD
:1002E0006A2B7B2B4D875E876F87788B29853A85B4
:1002F0004B855C856D857E85AF8598898A2F609654
:100300000FB6F894DEBF0FBECDBFCF91DF910F9136
:10031000FF90EF900895609100017091010182E1DA
:1003200091E00E940C02089582E191E063E171E0A6
:100330000E94DB09892B79F060911701772767FD0F
:10034000709580E892E042E050E00E94480D82E122
:1003500091E00E941102089580E892E040E855E2A1
:1003600060E070E00E94F50D82E191E00E94FC0ADD
:100370000895DF92EF92FF920F931F93CF93DF9335
:10038000EC01882777FD8095982F0E9483107B01D0
:100390008C0120E030E040E45FE30E94331120E074
:1003A00030E048E452E40E94E80F0E945010C61763
:1003B000D70714F4DD241CC0DD24C801B70120E0F8
:1003C00030E040EA5FE30E94331120E030E048E48F
:1003D00052E40E94E80F20E030E040E85FE30E9432
:1003E000800F0E9450106C177D0714F0DD24D39409
:1003F0008D2D90E0DF91CF911F910F91FF90EF90A5
:10040000DF9008956C597F4F0E94B901089564569A
:1004100070400E94B9010895609321011092230158
:10042000089582E0809322011092EE010895AF9228
:10043000BF92CF92DF92EF92FF920F931F93CF93D1
:10044000DF936B01DB011A96CD91DC911B978A81BA
:100450009B8168E273E20E940202892B09F480C04A
:100460008091EE01843009F08CC08C819D816AEC12
:1004700078E00E940702892B09F483C08E819F8156
:1004800060E372E00E940202892B09F47AC0F6014F
:10049000118610868FEF9FEFAFEFBFEF84839583B8
:1004A000A683B78381E090E09183808354C08C81E0
:1004B0009D8164E971E10E940702892B09F450C013
:1004C0002696EE24FF24870123E0A22EB12C8881FA
:1004D000998160E372E00E940202892B09F440C016
:1004E0008A819B8160E476E00E940702892B69F093
:1004F000EE0CFF1C001F111F81E090E0A0E0B0E0B7
:10050000E82AF92A0A2B1B2B0CC08A819B8160E305
:1005100072E00E940702892B19F1EE0CFF1C001FEC
:10052000111F249691E4A916B10429F0A2E0B0E0CD
:10053000AA0EBB1ECCCF80E290E0F60191878087A7
:10054000D6011496ED92FD920D931C93179781E0BE
:1005500090E08D939C9321E030E040E050E004C0B7
:1005600020E030E040E050E0B901CA01DF91CF91D6
:100570001F910F91FF90EF90DF90CF90BF90AF90C1
:1005800008958091EE01843458F391CFAF92BF92D9
:10059000CF92DF92EF92FF920F931F93CF93DF934F
:1005A0006B018091EE018A3108F480C0DB011A965C
:1005B000CD91DC911B9788819981845F914080F473
:1005C000FB01118610868FEF9FEFAFEFBFEF8483A3
:1005D0009583A683B78389E090E09183808361C08F
:1005E0008A819B8160E679E00E940202892B09F4EE
:1005F0005DC02696EE24FF24870162E0A62EB12C72
:1006000030C0229788819981229668E572E00E9425
:100610000702892B79F18881998160EB74E00E944F
:100620000202892B69F0EE0CFF1C001F111F81E0F4
:1006300090E0A0E0B0E0E82AF92A0A2B1B2B0CC0BE
:100640008881998168E572E00E940202892B71F12C
:10065000EE0CFF1C001F111FA2E0B0E0AA0EBB1E93
:1006600024968091EE0195012F5F3F4F90E028176F
:1006700039073CF2C501019795958795F601918759
:1006800080870C971CF41186108610C0D601149632
:10069000ED92FD920D931C93179782E090E08D935D
:1006A0009C9321E030E040E050E004C020E030E0E6
:1006B00040E050E0B901CA01DF91CF911F910F9145
:1006C000FF90EF90DF90CF90BF90AF900895AF92E2
:1006D000BF92CF92DF92EF92FF920F931F93CF932F
:1006E000DF936B018091EE018A3108F489C0DB0150
:1006F0001A96CD91DC911B97888199818052934005
:1007000080F4FB01118610868FEF9FEFAFEFBFEFF4
:1007100084839583A683B78389E090E09183808367
:100720006AC08A819B816CEA7DE00E940202892B6B
:1007300009F466C08C819D816CEA7DE00E94020212
:10074000892B09F45DC02896EE24FF248701A3E0DD
:10075000AA2EB12C30C0229788819981229666EB0F
:1007600073E00E940702892B79F18881998160E604
:1007700079E00E940202892B69F0EE0CFF1C001F39
:10078000111F81E090E0A0E0B0E0E82AF92A0A2BEE
:100790001B2B0CC0888199816CEB72E00E940202D5
:1007A000892B71F1EE0CFF1C001F111FA2E0B0E0BD
:1007B000AA0EBB1E24968091EE0195012F5F3F4F3C
:1007C00090E0281739073CF2C50101979595879568
:1007D000F601918780870C971CF41186108610C053
:1007E000D6011496ED92FD920D931C93179789E014
:1007F00090E08D939C9321E030E040E050E004C015
:1008000020E030E040E050E0B901CA01DF91CF9133
:100810001F910F91FF90EF90DF90CF90BF90AF901E
:1008200008956F927F928F929F92AF92BF92CF92D4
:10083000DF92EF92FF920F931F93CF93DF934B01C1
:100840008091EE01823208F47AC0DB011A96CD91D4
:10085000DC911B978A819B816EE571E00E94020208
:10086000892B09F46CC036E0A32EB12CAC0EBD1E52
:10087000EE24FF24870122E0C22ED12C37C0E501EF
:100880002297888199816EE977E00E940202892B84
:1008900069F0EE0CFF1C001F111F81E090E0A0E04A
:1008A000B0E0E82AF92A0A2B1B2B0DC08881998118
:1008B0006EEE72E00E940202892B09F440C0EE0C39
:1008C000FF1C001F111FD5018D919C916EE571E0F9
:1008D0000E940702E4E0F0E0AE0EBF1E892B11F487
:1008E00063010FC022E030E0C20ED31E360108942F
:1008F000611C711C8091EE0190E0681679060CF481
:10090000BECFC601019795958795D40119969C9302
:100910008E93189740972CF419961C921E92189754
:100920000EC0F401E482F582068317838AE090E02A
:100930009183808321E030E040E050E004C020E07B
:1009400030E040E050E0B901CA01DF91CF911F9142
:100950000F91FF90EF90DF90CF90BF90AF909F905E
:100960008F907F906F9008956F927F928F929F9259
:10097000AF92BF92CF92DF92EF92FF920F931F93AD
:10098000CF93DF93FB013A0159016801DA012D9100
:100990003C91848595852817390724F071E0E72E6E
:1009A000F12C56C0C901880F991F0284F385E02DF0
:1009B000E80FF91F80819181982E892E20FD06C0B5
:1009C0000CE91FEF51E0E52EF12C04C004E610E025
:1009D000EE24FF24B8016C0D7D1D892D982D0E94F9
:1009E000B901892B19F021E030E020C0E601CC0FDD
:1009F000DD1FB8016C0F7D1F892D982D0E94B90154
:100A0000892B19F022E030E011C0CC0DDD1D0C0F58
:100A10001D1F892D982DB8010E94B901892B21F441
:100A2000EE24EA94FE2C14C023E030E0F50180812E
:100A30009181019691838083821793074CF01182F4
:100A40001082D3018D919C91119701968D939C9367
:100A5000C701DF91CF911F910F91FF90EF90DF9031
:100A6000CF90BF90AF909F908F907F906F900895A0
:100A70002F923F924F925F926F927F928F929F92AE
:100A8000AF92BF92CF92DF92EF92FF920F931F939C
:100A9000DF93CF9300D000D000D0CDB7DEB71C01DC
:100AA0005B018091EE018D3008F47EC081E090E022
:100AB0009A8389831C821B82A3E08A2E912C8C0E40
:100AC0009D1EC1012E010894411C511CA2019401DC
:100AD00009E713E00E94B404892B09F065C0C10145
:100AE000B501A20194010E94B404019709F05CC011
:100AF000C101B501A20194010E94B404892B09F03F
:100B000053C0CC24DD24760166247724C4018D8271
:100B10009E832FC0C101B501A2012D813E8109E74D
:100B200013E00E94B4044C01C101B501A2012D8162
:100B30003E810E94B40421E08216910479F4892B4D
:100B400099F5CC0CDD1CEE1CFF1C81E090E0A0E0D0
:100B5000B0E0C82AD92AEA2AFB2A08C0892821F548
:100B6000019711F5CC0CDD1CEE1CFF1C0894611CD8
:100B7000711C8091EE0190E029813A812817390794
:100B80004CF2D50119967C926E921897F501C482A9
:100B9000D582E682F78283E090E09183808321E032
:100BA00030E040E050E004C020E030E040E050E0C1
:100BB000B901CA0126960FB6F894DEBF0FBECDBFAD
:100BC000CF91DF911F910F91FF90EF90DF90CF9029
:100BD000BF90AF909F908F907F906F905F904F905D
:100BE0003F902F9008952F923F924F925F926F9275
:100BF0007F928F929F92AF92BF92CF92DF92EF92AD
:100C0000FF920F931F93DF93CF93CDB7DEB7289753
:100C10000FB6F894DEBF0FBECDBF1C014B01DB0148
:100C20001C968D919C911D97181619060CF0C4C046
:100C300081E090E09A8389831A960D911C911B970D
:100C4000F801828193816AE67AE00E940202892B90
:100C500009F4B2C082E090E09A838983D8011496A7
:100C60008D919C91159769E773E00E940702892B8B
:100C700009F4A2C083E090E09A8389831C821B82DE
:100C800003E0A02EB12CAC0EBD1EC101B4013E018B
:100C90000894611C711CA30195010CEB11E00E94EA
:100CA000B404892B09F088C0C101B401A3019501E6
:100CB0000E94B404019709F07FC0CC24DD247601A2
:100CC00044245524C501AD829E83C3016F82988759
:100CD00056C0C101B4014F8158852D813E810CEB76
:100CE00011E00E94B4043C01B3E04B16510461F4DE
:100CF000C101B4014F8158852D813E810E94B40409
:100D00006816790609F058C0C101B4014F815885B1
:100D10002D813E810CEB11E00E94B4045C01E3E004
:100D20004E16510459F4C101B4014F8158852D81EB
:100D30003E810E94B404A816B906F1F5611471044D
:100D400089F4F1E0AF16B104B9F5CC0CDD1CEE1C52
:100D5000FF1C81E090E0A0E0B0E0C82AD92AEA2A8E
:100D6000FB2A0AC091E06916710431F5AB2821F520
:100D7000CC0CDD1CEE1CFF1C0894411C511C29816D
:100D80003A81D4011C968D919C911D9728173907A3
:100D90000CF49FCF19965C924E921897F401C4827E
:100DA000D582E682F78284E090E09183808321E01F
:100DB00030E040E050E004C020E030E040E050E0AF
:100DC000B901CA0128960FB6F894DEBF0FBECDBF99
:100DD000CF91DF911F910F91FF90EF90DF90CF9017
:100DE000BF90AF909F908F907F906F905F904F904B
:100DF0003F902F9008956F927F928F929F92AF9223
:100E0000BF92CF92DF92EF92FF920F931F93CF93F7
:100E1000DF937B01FB01C285D3858A819B816EEACA
:100E20007DE00E940202892B09F474C08C819D81AF
:100E300066ED76E00E940202892B09F46BC02696CB
:100E400000E010E0DD24CC24992488247724662453
:100E500083E0A82EB12C8881998166EF71E00E9411
:100E60000202892B09F456C08A819B816CED74E0E3
:100E70000E940702892B69F098014D2D5C2D692D88
:100E8000782D872D962D01E00E940C01022F016024
:100E900013C08A819B8160E971E00E940702892B5F
:100EA000C9F198014D2D5C2D692D782D872D962D3A
:100EB00001E00E940C01022F132FD42EC52E962E76
:100EC000872E782E692E2496F1E6AF16B10429F00C
:100ED00082E090E0A80EB91EBECFC801F7010483DE
:100EE0009583468357839801872D962D00E20E94B3
:100EF0008D00C901F7012283938387E090E09183FD
:100F0000808380E390E09187808721E030E040E0BB
:100F100050E004C020E030E040E050E0B901CA01F8
:100F2000DF91CF911F910F91FF90EF90DF90CF90C5
:100F3000BF90AF909F908F907F906F9008958F9209
:100F40009F92AF92BF92CF92DF92EF92FF920F9358
:100F50001F93CF93DF936B018091EE01823209F0F2
:100F6000B2C0DB011A96CD91DC911B978A819B81DF
:100F700068E572E00E940202892B09F4A4C0809106
:100F8000EE0121E030E0281B3109220F331FC21B84
:100F9000D30B8881998168E572E00E940202892B57
:100FA00009F491C0F601118610868FEF9FEFAFEF25
:100FB000BFEF84839583A683B78388E090E0918315
:100FC000808369C08091EE01813208F469C0D50147
:100FD00014968D919C91159760EA7FE00E9407021C
:100FE000892B09F45DC0E5012696EE24FF248701D4
:100FF00033E0832E912C8881998168E572E00E940C
:101000000202892B09F44CC08A819B8160E476E05E
:101010000E940702892B69F0EE0CFF1C001F111FB4
:1010200081E090E0A0E0B0E0E82AF92A0A2B1B2B2F
:101030000CC08A819B8166E272E00E940702892BC4
:1010400079F1EE0CFF1C001F111FA2E0B0E08A0E28
:101050009B1E2496B3E28B16910469F6E6E4F0E059
:10106000AE0EBF1ED5018D919C9168E572E00E9485
:101070000202892BA9F080E190E0F6019187808738
:10108000D6011496ED92FD920D931C93179788E06C
:1010900090E08D939C9321E030E040E050E004C06C
:1010A00020E030E040E050E0B901CA01DF91CF918B
:1010B0001F910F91FF90EF90DF90CF90BF90AF9076
:1010C0009F908F900895F601A284B384D501129663
:1010D0008D919C91139760E47FE10E940202892B1D
:1010E00009F070CFDDCFAF92BF92CF92DF92EF9237
:1010F000FF920F931F93CF93DF936B01DB011A963F
:10110000CD91DC911B978A819B8168E873E10E94F5
:101110000202892B09F480C08091EE01843009F02D
:101120008CC08C819D816AEC78E00E940702892B3B
:1011300009F483C08E819F8160E372E00E94020205
:10114000892B09F47AC0F601118610868FEF9FEF84
:10115000AFEFBFEF84839583A683B7838BE090E0E6
:101160009183808354C08C819D8168E873E10E94E3
:101170000702892B09F450C02696EE24FF2487012C
:1011800073E0A72EB12C8881998160E372E00E9400
:101190000202892B09F440C08A819B8160E476E0D9
:1011A0000E940702892B69F0EE0CFF1C001F111F23
:1011B00081E090E0A0E0B0E0E82AF92A0A2B1B2B9E
:1011C0000CC08A819B8160E372E00E940702892B38
:1011D00019F1EE0CFF1C001F111F249691E4A916B3
:1011E000B10429F0A2E0B0E0AA0EBB1ECCCF80E291
:1011F00090E0F60191878087D6011496ED92FD92DA
:101200000D931C9317978BE090E08D939C9321E0B6
:1012100030E040E050E004C020E030E040E050E04A
:10122000B901CA01DF91CF911F910F91FF90EF900B
:10123000DF90CF90BF90AF9008958091EE018434FD
:1012400058F391CF2F923F924F925F926F927F927D
:101250008F929F92AF92BF92CF92DF92EF92FF92C6
:101260000F931F93DF93CF9300D0CDB7DEB71B0151
:10127000FB0184859585863091052CF420E030E0D3
:1012800040E050E081C015ECA12E1DE9B12E1CE11B
:10129000C12E11E8D12EB6E04B2E512C9C01220F0D
:1012A000331F3A83298359C0F101A285B385F20126
:1012B0003497EA0FFB1FE080F180A40DB51D6D91FE
:1012C0007C9180E090E00E9481103B014C0100E0A5
:1012D00010E0C801B7010E9481107B018C012DEC48
:1012E0003CEC4CE45FE30E9433119B01AC01C40170
:1012F000B3010E94E40F88231CF400E010E018C042
:10130000C401B3012DEC3CEC4CE45FE30E943311CB
:101310009B01AC01C801B7010E94E40F082F1127FF
:1013200007FD10950027110F001F11270F5F1F4F9A
:10133000C601B50123E931E040E051E00E94961179
:101340005801CC24B7FCC094DC2CA626B726C826AE
:10135000D92622E030E0420E531E89819A81481638
:10136000590609F0A1CFF101A482B582C682D782C5
:1013700080E290E0918780878FEF9FEF9183808359
:1013800021E030E040E050E0B901CA010F900F9039
:10139000CF91DF911F910F91FF90EF90DF90CF9051
:1013A000BF90AF909F908F907F906F905F904F9085
:1013B0003F902F9008950F931F93CF93DF938C014D
:1013C000EB0186E291E09B878A878091EE018C8712
:1013D0001D8680912201853009F061C0C8010E94FC
:1013E0001702611571058105910509F05BC0C801FF
:1013F000BE010E94C602611571058105910509F0C3
:1014000051C0C801BE010E946703611571058105C5
:10141000910509F047C0C801BE010E941104611581
:10142000710581059105F1F5C801BE010E943805DD
:101430006115710581059105A9F5C801BE010E94DC
:10144000F305611571058105910561F5C801BE01BE
:101450000E94FB06611571058105910519F5C8010A
:10146000BE010E949F076115710581059105D1F4A8
:10147000C801BE010E9473086115710581059105BF
:1014800089F4C801BE010E94220961157105810518
:10149000910541F482E0809322011092EE0120E058
:1014A00030E002C021E030E0C901DF91CF911F910F
:1014B0000F9108951F920F920FB60F9211242F9340
:1014C0003F934F935F936F937F938F939F93AF93CC
:1014D000BF93EF93FF93809121010E94D90B482F76
:1014E000809124019091250101969093250180938C
:1014F00024018091EE01843618F085E0809322016A
:10150000809122018330D1F0843020F4823009F0C0
:1015100059C006C0843071F1853009F053C04CC009
:10152000442309F04FC08091240190912501843615
:10153000910508F443C01092EE011EC0413009F03D
:1015400041C08091EE01E82FF0E02091240130911C
:101550002501EE0FFF1FEF5DFE4F368325838F5F62
:101560008093EE01109225011092240184E0809373
:10157000220128C04423B9F48091EE01E82FF0E065
:101580002091240130912501EE0FFF1FEF5DFE4FEA
:10159000368325838F5F8093EE0110922501109290
:1015A000240183E0E4CF80912401909125018536C8
:1015B000910540F085E0DBCF442321F41092250112
:1015C0001092240180912301882329F0442311F4EF
:1015D0002D9A01C02D98FF91EF91BF91AF919F91EE
:1015E0008F917F916F915F914F913F912F910F90CC
:1015F0000FBE0F901F901895F89492E09093B00052
:101600009093B10084E68093B300E2EBF0E01082A7
:10161000E08190937000789482E080932201109290
:10162000EE018091210160E00E949A0B08951F92C3
:101630000F920FB60F9211242F933F938F939F9386
:10164000AF93BF938091F3019091F401A091F501C4
:10165000B091F6013091F7010196A11DB11D232F24
:101660002D5F2D3720F02D570196A11DB11D209320
:10167000F7018093F3019093F401A093F501B093E7
:10168000F6018091EF019091F001A091F101B091EC
:10169000F2010196A11DB11D8093EF019093F0011D
:1016A000A093F101B093F201BF91AF919F918F91FF
:1016B0003F912F910F900FBE0F901F901895789427
:1016C00084B5826084BD84B5816084BD85B5826047
:1016D00085BD85B5816085BDEEE6F0E080818160E5
:1016E0008083E1E8F0E010828081826080838081E5
:1016F00081608083E0E8F0E0808181608083E1EBBD
:10170000F0E0808184608083E0EBF0E080818160A4
:101710008083EAE7F0E0808184608083808182605A
:101720008083808181608083808180688083109243
:10173000C1000895CF93DF93482F50E0CA01865629
:101740009F4FFC0134914A575F4FFA0184918823DF
:1017500069F190E0880F991FFC01E859FF4FA591AE
:10176000B491FC01EE58FF4FC591D491662351F41A
:101770002FB7F8948C91932F909589238C9388811F
:1017800089230BC0623061F42FB7F8948C91932FAA
:10179000909589238C938881832B88832FBF06C0E3
:1017A0009FB7F8948C91832B8C939FBFDF91CF913F
:1017B0000895682F70E0CB0182559F4FFC01249162
:1017C000CB0186569F4FFC0144916A577F4FFB0126
:1017D0009491992319F420E030E03CC0222351F188
:1017E000233071F0243028F42130A1F0223011F59B
:1017F00014C02630B1F02730C1F02430D9F404C031
:10180000809180008F7703C0809180008F7D8093CE
:10181000800010C084B58F7702C084B58F7D84BDF1
:1018200009C08091B0008F7703C08091B0008F7D98
:101830008093B000892F90E0880F991F84589F4FA4
:10184000FC01A591B4918C9120E030E0842311F04B
:1018500021E030E0C90108950895CF93DF930E94FD
:101860005F0B0E942C0C0E94AC01C3EADDE00E94D9
:1018700094012097E1F30E94A30DF9CFCF92DF925C
:10188000EF92FF920F931F93CF93DF937C016B0135
:101890008A01C0E0D0E00FC0D6016D916D01D70183
:1018A000ED91FC910190F081E02DC7010995C80FE1
:1018B000D91F015010400115110571F7CE01DF91BC
:1018C000CF911F910F91FF90EF90DF90CF900895EF
:1018D000EF92FF920F931F938C01DC01ED91FC912D
:1018E0000190F081E02D6DE009957C01D801ED912A
:1018F000FC910190F081E02DC8016AE009959C01FE
:101900002E0D3F1DC9011F910F91FF90EF9008957B
:10191000CF93DF93EC016115710519F420E030E0FD
:101920000FC0DB010D900020E9F71197A61BB70B44
:10193000E881F9810280F381E02DAD0109959C01D8
:10194000C901DF91CF9108954F925F927F928F925C
:101950009F92AF92BF92CF92DF92EF92FF920F933E
:101960001F93DF93CF93CDB7DEB7A1970FB6F8944F
:10197000DEBF0FBECDBF2C01742ECB01223008F488
:101980002AE019A231E2C32ED12CCC0EDD1E822E0C
:101990009924AA24BB24672D752FA50194010E94C8
:1019A000C81179018A01C801B701A50194010E94FB
:1019B0009611472D461B0894C108D1084A3014F4EB
:1019C000405D01C0495CF6014083E114F10401056A
:1019D000110521F07E2C5F2DC801DDCFC201B601BB
:1019E0000E94880CA1960FB6F894DEBF0FBECDBF43
:1019F000CF91DF911F910F91FF90EF90DF90CF90EB
:101A0000BF90AF909F908F907F905F904F90089580
:101A1000CF92DF92EF92FF920F931F93CF93DF93BA
:101A2000EC016A017B012115310541F4E881F9815E
:101A30000190F081E02D642F09951FC02A303105F7
:101A4000D1F477FF17C0E881F9810190F081E02D92
:101A50006DE209958C0144275527BA014C195D099F
:101A60006E097F09CE012AE00E94A40C9801280F7C
:101A7000391F04C02AE00E94A40C9C01C901DF9117
:101A8000CF911F910F91FF90EF90DF90CF9008952D
:101A9000CF92DF92EF92FF920F931F936C017B0125
:101AA0009A010027F7FC0095102FB801A7010E94AA
:101AB000080D8C01C6010E94680C080F191FC8018F
:101AC0001F910F91FF90EF90DF90CF9008950895B0
:101AD0001F920F920FB60F9211242F933F934F93A3
:101AE0008F939F93EF93FF938091C00082FD1DC061
:101AF0004091C60020913802309139022F5F3F4F4C
:101B00002F73307080913A0290913B022817390769
:101B100071F0E0913802F0913902E850FE4F4083B5
:101B2000309339022093380202C08091C600FF91A1
:101B3000EF919F918F914F913F912F910F900FBEF9
:101B40000F901F901895E0918C02F0918D02E05C4F
:101B5000FF4F8191919120813181805C9F4F821B49
:101B6000930B60E470E00E94B511892B11F00E9484
:101B7000670D08951F920F920FB60F9211242F93A5
:101B80003F938F939F93EF93FF9320917C0230912B
:101B90007D0280917E0290917F022817390731F4EF
:101BA0008091C1008F7D8093C10014C0E0917E02BE
:101BB000F0917F02E45CFD4F208180917E02909144
:101BC0007F0201968F73907090937F0280937E02C4
:101BD0002093C600FF91EF919F918F913F912F919C
:101BE0000F900FBE0F901F901895AF92BF92DF928B
:101BF000EF92FF920F931F93CF93DF93EC017A0143
:101C00008B01DD24403081EE580780E0680780E0DA
:101C1000780711F0DD24D39491E0A92EB12CEC8942
:101C2000FD89DD2069F0C50108A002C0880F991F59
:101C30000A94E2F7808360E079E08DE390E005C0EC
:101C4000108260E874E88EE190E0A80197010E949C
:101C5000C811215030404040504056954795379527
:101C6000279580E12030380720F0DD2011F0DD24B9
:101C7000D6CFE889F9893083EA89FB89208319A2C4
:101C8000EE89FF89408121E030E0C9010C8C02C05F
:101C9000880F991F0A94E2F7482B4083EE89FF8949
:101CA0004081C9010D8C02C0880F991F0A94E2F788
:101CB000482B4083EE89FF894081C9010E8C02C008
:101CC000880F991F0A94E2F7482B4083EE89FF8919
:101CD00080810F8C02C0220F331F0A94E2F72095F7
:101CE00028232083DF91CF911F910F91FF90EF90D8
:101CF000DF90BF90AF900895DC011C96ED91FC91B0
:101D00001D97E05CFF4F8191919120813181805C32
:101D10009F4F821B930B60E470E00E94B511089501
:101D2000DC011C96ED91FC911D97E05CFF4F20813A
:101D30003181E054F040DF01AE5BBF4F8D919C914B
:101D400011972817390719F42FEF3FEF07C08D912E
:101D50009C91E80FF91F8081282F30E0C901089578
:101D6000DC011C96ED91FC911D97E05CFF4F2081FA
:101D70003181E054F040DF01AE5BBF4F8D919C910B
:101D800011972817390719F42FEF3FEF10C08D91E5
:101D90009C911197E80FF91F20818D919C911197CB
:101DA00001968F73907011969C938E9330E0C901C9
:101DB0000895DC0191968C919197882339F054967F
:101DC000ED91FC915597808186FFF9CF91961C92F9
:101DD0000895CF93DF93EC01EE85FF85E05CFF4F24
:101DE00020813181E054F0402F5F3F4F2F733070DE
:101DF000DF01AE5BBF4F8D919C911197281739077A
:101E0000D1F3E05CFF4F80819181E054F040E80F16
:101E1000F91F6083EE85FF85E05CFF4F31832083EF
:101E2000EE89FF89208181E090E00F8C02C0880F4D
:101E3000991F0A94E2F7282B208381E089A3EC897B
:101E4000FD8980818064808381E090E0DF91CF9183
:101E50000895109283021092820288EE93E0A0E02F
:101E6000B0E08093840290938502A0938602B093A1
:101E7000870286E091E0909381028093800288EF50
:101E800091E090938D0280938C028CE392E090938A
:101E90008F0280938E0285EC90E090939102809364
:101EA000900284EC90E0909393028093920280ECF5
:101EB00090E0909395028093940281EC90E090934F
:101EC00097028093960282EC90E09093990280931F
:101ED000980286EC90E090939B0280939A0284E0B3
:101EE00080939C0283E080939D0287E080939E0212
:101EF00085E080939F0281E08093A002089550586E
:101F0000BB27AA270ED075C166D130F06BD120F067
:101F100031F49F3F11F41EF45BC10EF4E095E7FB32
:101F200051C1E92F77D180F3BA176207730784078D
:101F3000950718F071F49EF58FC10EF4E0950B2E05
:101F4000BA2FA02D0B01B90190010C01CA01A0010B
:101F50001124FF27591B99F0593F50F4503E68F166
:101F60001A16F040A22F232F342F4427585FF3CFA7
:101F7000469537952795A795F0405395C9F77EF478
:101F80001F16BA0B620B730B840BBAF09150A1F0C1
:101F9000FF0FBB1F661F771F881FC2F70EC0BA0F47
:101FA000621F731F841F48F4879577956795B795CF
:101FB000F7959E3F08F0B3CF9395880F08F09927C7
:101FC000EE0F979587950895D9D008F481E008958C
:101FD0000CD00FC107D140F0FED030F021F45F3FAC
:101FE00019F0F0C0511139C1F3C014D198F39923FD
:101FF000C9F35523B1F3951B550BBB27AA276217CD
:102000007307840738F09F5F5F4F220F331F441F11
:10201000AA1FA9F333D00E2E3AF0E0E830D0915049
:102020005040E695001CCAF729D0FE2F27D0660F36
:10203000771F881FBB1F261737074807AB07B0E875
:1020400009F0BB0B802DBF01FF2793585F4F2AF08B
:102050009E3F510568F0B6C000C15F3FECF3983E6B
:10206000DCF3869577956795B795F7959F5FC9F7E8
:10207000880F911D9695879597F90895E1E0660F71
:10208000771F881FBB1F621773078407BA0720F0EA
:10209000621B730B840BBA0BEE1F88F7E095089553
:1020A00004D06894B111D9C00895BCD088F09F576E
:1020B00090F0B92F9927B751A0F0D1F0660F771F94
:1020C000881F991F1AF0BA95C9F712C0B13081F074
:1020D000C3D0B1E00895C0C0672F782F8827B85FBC
:1020E00039F0B93FCCF3869577956795B395D9F7D5
:1020F0003EF490958095709561957F4F8F4F9F4FDF
:102100000895E89409C097FB3EF4909580957095EA
:1021100061957F4F8F4F9F4F9923A9F0F92F96E933
:10212000BB279395F695879577956795B795F111A8
:10213000F8CFFAF4BB0F11F460FF1BC06F5F7F4F45
:102140008F4F9F4F16C0882311F096E911C0772357
:1021500021F09EE8872F762F05C0662371F096E860
:10216000862F70E060E02AF09A95660F771F881F2F
:10217000DAF7880F9695879597F90895990F0008D3
:10218000550FAA0BE0E8FEEF16161706E807F90749
:10219000C0F012161306E407F50798F0621B730BE4
:1021A000840B950B39F40A2661F0232B242B252B65
:1021B00021F408950A2609F4A140A6958FEF811D08
:1021C000811D089597F99F6780E870E060E00895A9
:1021D0009FEF80EC089500240A941616170618063F
:1021E0000906089500240A9412161306140605061B
:1021F0000895092E0394000C11F4882352F0BB0FAC
:1022000040F4BF2B11F460FF04C06F5F7F4F8F4F0E
:102210009F4F089557FD9058440F551F59F05F3F49
:1022200071F04795880F97FB991F61F09F3F79F0F8
:1022300087950895121613061406551FF2CF46957A
:10224000F1DF08C0161617061806991FF1CF8695FC
:102250007105610508940895E894BB2766277727E0
:10226000CB0197F908950BD0C4CFB5DF28F0BADFC2
:1022700018F0952309F0A6CFABCF1124EECFCADF1B
:10228000A0F3959FD1F3950F50E0551F629FF00189
:10229000729FBB27F00DB11D639FAA27F00DB11DE2
:1022A000AA1F649F6627B00DA11D661F829F22276B
:1022B000B00DA11D621F739FB00DA11D621F839FF2
:1022C000A00D611D221F749F3327A00D611D231FC8
:1022D000849F600D211D822F762F6A2F11249F5716
:1022E00050408AF0E1F088234AF0EE0FFF1FBB1F39
:1022F000661F771F881F91505040A9F79E3F5105D8
:1023000070F060CFAACF5F3FECF3983EDCF3869588
:1023100077956795B795F795E7959F5FC1F7FE2B82
:10232000880F911D9695879597F90895629FD00122
:10233000739FF001829FE00DF11D649FE00DF11D80
:10234000929FF00D839FF00D749FF00D659FF00D2F
:102350009927729FB00DE11DF91F639FB00DE11D1C
:10236000F91FBD01CF011124089597FB092E0726FF
:102370000AD077FD04D02ED006D000201AF4709534
:1023800061957F4F0895F6F7909581959F4F089539
:10239000A1E21A2EAA1BBB1BFD010DC0AA1FBB1F69
:1023A000EE1FFF1FA217B307E407F50720F0A21BDB
:1023B000B30BE40BF50B661F771F881F991F1A9448
:1023C00069F760957095809590959B01AC01BD0172
:1023D000CF010895AA1BBB1B51E107C0AA1FBB1F59
:1023E000A617B70710F0A61BB70B881F991F5A95A1
:1023F000A9F780959095BC01CD010895EE0FFF1FC0
:0C2400000590F491E02D0994F894FFCFB2
:10240C00040000000000E90E3E0C7C0EB00E900E95
:02241C00D90ED7
:00000001FF
